:020000040800F2
:1000000088040020010100082501000827010008DC
:10001000290100082B0100082D0100080000000044
:100020000000000000000000000000002F01000898
:10003000310100080000000033010008350100080C
:100040001B0100081B0100081B0100081B01000820
:100050001B0100081B0100081B0100081B01000810
:100060001B0100081B0100081B0100081B01000800
:100070001B0100081B0100081B0100081B010008F0
:100080001B0100081B0100081B0100081B010008E0
:100090001B0100081B0100081B0100081B010008D0
:1000A0001B0100081B0100081B0100081B010008C0
:1000B0001B0100081B0100081B0100081B010008B0
:1000C0001B0100081B0100081B0100081B010008A0
:1000D0001B010008370100083D010008430100082A
:1000E0001B0100081B0100081B010008DFF80CD0F1
:1000F00001F0ACF8004800475501000888040020D2
:100100000648804706480047FEE7FEE7FEE7FEE7B1
:10011000FEE7FEE7FEE7FEE7FEE7FEE73111000837
:10012000ED0000087047FEE7FEE7FEE7FEE77047D8
:10013000704770477047044800F080B9034800F0EA
:100140007DB9034800F07AB9400000205800002033
:10015000700000204FF4A06000F020FB00F0D4F805
:1001600000F002FB19A001F0A3F822A001F0A0F812
:1001700029A001F09DF837A001F09AF843A001F002
:1001800097F84FA001F094F801225349534800F02A
:1001900008F901225249534800F003F90422524958
:1001A000524800F0FEF8524C524E4FF4005529468A
:1001B000204600F002FCC0F10100C2B229462046F0
:1001C00000F009FC304600F097F8F0E70D0A2074C3
:1001D0006869732069732061207072696E7466208B
:1001E000496E746572727570742064656D6F200D50
:1001F0000A0000000D0A20BBB6D3ADCAB9D3C3BFF5
:10020000AACDD8D5DF53544D333220BFAAB7A2B000
:10021000E5200D0A000000000D0A2A2A2A2A2A2AAF
:100220002A2A2A2A2A2A2A2A2AB4AEBFDACAB5D109
:10023000E92D2DBDD3CADCD6D0B6CFCAB5D1E92AB7
:100240002A2A2A2A2A2A2A2A2A2A2A2A2A2A2A2018
:100250000D0A00000D0AC3E8CAF63AD4DAB3ACBC02
:10026000B6D6D5B6CBC7C3C8EBD2BBCFB5C1D0D7F6
:10027000D6B7FBA3ACD7A2D2E2A3ACB1D8D0EBD215
:10028000AABBD8B3B5BDE1CEB20D0A000D0A20203D
:10029000202020B5A5C6ACBBFABDD3CAD5B5BDCA12
:1002A000FDBEDDD6AEBAF3D6B1BDD3B0B4D4ADD1B8
:1002B000F9B4F2D3A1B3F6C0B4200D0A00000000D7
:1002C0000D0AC7EBBFAACABCCAE4C8EBD7D6B7FBB6
:1002D000B4AE3A200D0A00000400002040000020C7
:1002E00009000020580000200E00002070000020AF
:1002F0000010014000093D0001B5009801E0401EDA
:1003000000900028FBD108BD38B50121102000F075
:10031000DCFC4FF40054ADF8004010208DF80300D1
:100320000320064D8DF802006946284600F0E5FAE4
:100330002146284600F04BFB38BD0000001001406C
:1003400070B5734D0446C1B2284600F006FE402148
:10035000284600F063FE0128F9D1204670BD10B593
:100360006B4C2021204600F059FE0028F9D0204691
:10037000BDE8104000F0F5BD10B50446807910B11D
:10038000A08A00280BD00120A071012240F2255143
:10039000206800F096FD206921680078888010BDF3
:1003A000704743790BB1002A0BD00123437100231E
:1003B000C381828181600068012240F2255100F0F2
:1003C00080BD704770B500685149524D88420ED1CA
:1003D000514E002451A0315D295500F069FF641C85
:1003E00014F0FF04F6D001224B494E4822E04E495A
:1003F00088420ED14D4E00244DA0315D295500F0AC
:1004000057FF641C14F0FF04F6D0012247494A4804
:1004100010E04A49884210D1494E002449A0315D7C
:10042000295500F045FF641CE4B2042CF6D344497E
:1004300046480422BDE87040B3E770BD2DE9F041A5
:1004400004460068324B002540F2255198421DD1E8
:1004500062798AB1E289A789561CBE420CD880888D
:10046000A668B054E089401C80B2E081A289904225
:100470004CD1002218461FE0A079002846D0E08A1F
:10048000A18A401C884241D8772239E0264A90420E
:1004900023D16279BAB1E289A689531CB34212D83A
:1004A0008088A3689854E089401C80B2E081A289CA
:1004B00090422BD10022206800F003FD6571204698
:1004C000BDE8F0417EE7A07900281FD0E08AA18A2C
:1004D000401C88421AD88B2212E0184A904215D14B
:1004E000627922B1E289A689531CB342D8D9A07996
:1004F00000280BD0E08AA18A401C884206D89F229F
:10050000BDE8F04112A117A000F0D2BEBDE8F08115
:1005100000380140000000200400002025630D0A7F
:1005200000000000400000200044004009000020BE
:1005300025580D0A00000000580000200048004027
:100540000E00002025640D0A00000000700000204D
:100550002E2E5C2E2E5C66756E635F7573617274F1
:100560002E63000025732C256400000008B52520AB
:100570008DF8000001208DF801008DF802008DF843
:100580000300684600F00FF97F497E48086008BD07
:1005900008B526208DF8000001208DF801008DF8A7
:1005A00002008DF80300684600F0FDF876497748B0
:1005B0001831086008BD08B527208DF8000001201B
:1005C0008DF801008DF802008DF80300684600F0F8
:1005D000EAF86D496E483031086008BD10B586B044
:1005E0000121042000F071FB0121880300F06DFB64
:1005F0004FF40070ADF8100018208DF813000320A0
:10060000644C8DF8120004A9204600F076F92115FB
:10061000ADF8101004218DF8131004A9204600F045
:100620006CF94FF47A3000900020ADF80400ADF87A
:100630000600ADF80800ADF80C000C20514CADF8E8
:100640000A006946204600F0BFFB012240F2255116
:10065000204600F036FC0121204600F028FC06B0C0
:1006600010BD30B585B00121042000F02EFB012122
:10067000480400F033FB0424ADF8104018208DF836
:1006800013000320434D8DF8120004A9284600F002
:1006900034F90821ADF810108DF8134004A928464C
:1006A00000F02BF94FF4165000900020ADF8040034
:1006B000ADF80600ADF80800ADF80C000C20334C86
:1006C000ADF80A006946204600F07EFB012240F2A8
:1006D0002551204600F0F5FB0121204600F0E7FB04
:1006E00005B030BD10B586B00121082000F0EDFA4C
:1006F0000121880400F0F2FA4FF48060ADF8100098
:1007000018208DF813000320234C8DF8120004A943
:10071000204600F0F2F8E114ADF8101004218DF835
:10072000131004A9204600F0E8F84FF4165000908A
:100730000020ADF80400ADF80600ADF80800ADF8F3
:100740000C000C20124CADF80A006946204600F05F
:100750003BFB012240F22551204600F0B2FB012173
:10076000204600F0A4FB7AE710B5FFF737FFFFF74C
:1007700078FFFFF7B7FFFFF7F9FEFFF709FFBDE8C6
:10078000104018E7003801404000002000440040BD
:100790000048004000080140000C0140284908437F
:1007A00028490860704730B50F23C27801780125C9
:1007B000F2B1244A126801F1E02102F4E062C2F5CC
:1007C000E062120AC2F10404D3404278A240847865
:1007D0001C401443220181F80024007800F01F011E
:1007E0008D404009800000F1E020C0F8005130BD8C
:1007F00001F01F0085404809800000F1E020C0F8AA
:10080000805130BD104A114001430E48001F016065
:1008100070470C4A121D0029116801D0014300E005
:100820008143116070474FF0E0210428086903D02C
:1008300020F004000861704740F00400FAE700006F
:100840000000FA050CED00E080FFFF1F8F4910B596
:10085000884206D10121042000F049FA0021042039
:100860003BE08B49884206D10121082000F03FFA85
:100870000021082031E08749884206D1012110205B
:1008800000F035FA0021102027E08349884206D184
:100890000121202000F02BFA002120201DE07F49BB
:1008A000884206D10121402000F021FA0021402099
:1008B00013E07B49884206D10121802000F017FA1D
:1008C0000021802009E0774988420AD1841501215E
:1008D000204600F00CFA00212046BDE8104000F050
:1008E00006BA10BD10B50121084600F000FA00213B
:1008F000BDE81040012000F0FAB9F0B5CC78002234
:1009000004F00F03E40601D58C7823430C784FF0F4
:100910000F0C14F0FF0F4FF0010E1BD005680E886E
:100920000EFA02F42640A64210D196000CFA06F701
:1009300025EA070703FA06F5CE783D43282E02D0B4
:10094000482E02D002E0446100E00461521C082AF3
:10095000E5D305600A88FF2A1CD94468002202F109
:1009600008060EFA06F50E882E40AE420ED196000D
:100970000CFA06F7BC4303FA06F7CE783C43282E60
:1009800000D14561CE78482E00D10561521C082A5D
:10099000E5D34460F0BD4FF6FF7101800221817004
:1009A0000421C17070470246002092680A4200D0BC
:1009B00001207047806880B2704702460020D268EC
:1009C0000A4200D001207047C06880B270470161C0
:1009D0007047416170470AB10161704741617047DA
:1009E000C160704741F480328261816182618169B6
:1009F000806970472C4B10B51A684FF680742240FE
:100A000042EA00100843186010BD2849C8617047C9
:100A1000F0B5254C002801DAE36900E06368450D74
:100A20002E0185B2C0F30157B540C0F30342032F36
:100A300005D0C6020AD503269640B34307E023F04B
:100A40007062636823F07063636002E0AB4343F05D
:100A5000706201B12A43002801DAE261F0BD6260F0
:100A6000F0BD10B58A0721F003040F49120F21448D
:100A70000F238C6893409C438C608B6890400343A9
:100A80008B6010BD0949C1F8DC00704700080140C7
:100A9000000C01400010014000140140001801400A
:100AA000001C0140002001400000014000002042E5
:100AB000A548016841F0010101604168A34A114065
:100AC00041600168A24A11400160016821F480215F
:100AD0000160416821F4FE0141604FF41F01816013
:100AE000704799490A6822F480320A600A6822F441
:100AF00080220A60B0F5803F07D0B0F5802F03D187
:100B0000086840F4A02008607047086840F480300E
:100B1000F9E70346002059098B4A01290AD0022926
:100B20000AD0516A03F01F02012393400B4200D008
:100B3000012070471168F5E7116AF3E718B5002046
:100B40004FF4A06400903120FFF7E3FF0099491CA7
:100B50000091A14201D00028F5D03120FFF7D9FF44
:100B6000002800D0012018BD774A116821F0F80153
:100B700041EAC00010607047764908607047724BC8
:100B80005A68084322F47C12104358607047714938
:100B9000086670476C4A516821F0030101435160B7
:100BA00070476948406800F00C007047664A516819
:100BB00021F0F001014351607047634A516821F40C
:100BC000E0610143516070475F4A516821F4605110
:100BD00041EAC000506070475B4A0029517A01D059
:100BE000014300E08143517270475A49C1F8D8006F
:100BF0007047554A516821F44041014351607047A4
:100C00005149002281F8202081F82020012802D0BB
:100C1000042802D1052081F8200070474E49086061
:100C2000704749490A6A02430A6270474A4944398F
:100C30000860704730B5444A5168484B11F00C01C8
:100C400003D0042901D0082901D0036012E05168C3
:100C5000536801F470114FF0020413F4803F04EB69
:100C6000914102D053689B0301D53D4B00E03B4BC3
:100C70005943016051680F2303EA1111394B5C5C41
:100C80000168E14041605468072505EA14241C5DB1
:100C900021FA04F48460546805EAD4241B5DD94029
:100CA000C1605268032303EA92322E4B1B1F9A5CE9
:100CB000B1FBF2F1016130BD234A0029516901D035
:100CC000014300E08143516170471F4A0029916947
:100CD00001D0014300E08143916170471A4A002925
:100CE000D16901D0014300E08143D1617047164AC8
:100CF0000029D16801D0014300E08143D1607047F1
:100D0000114A0029116901D0014300E081431161BA
:100D1000704711494039086070470E49C8647047F0
:100D20000949C87170470848416A41F080714162C1
:100D30007047054A0146002092680A4200D001200F
:100D40007047014988727047001002400000FFF8A8
:100D5000FFFFF6FE000042428004424200127A0089
:100D600000093D0017000020C44910B588420AD18F
:100D700001218C032046FFF7BAFF2046BDE8104052
:100D80000021FFF7B4BFBE49884202D101214C04C3
:100D900010E0BC49884202D101218C040AE0BA4922
:100DA000884202D10121CC0404E0B84988420AD12A
:100DB00001210C052046FFF7A3FF2046BDE81040A7
:100DC0000021FFF79DBF10BD30B50446008A85B0F5
:100DD0000D464CF6FF710840E98801432182A08945
:100DE0004EF6F3110840A9882A8911436A89024303
:100DF0001143A181A08A4FF6FF410840A989014310
:100E0000A1826846FFF716FF9C48844201D10398EF
:100E100000E00298A189090400EBC00101EB001079
:100E2000296801D5490000E08900B0FBF1F0642297
:100E3000B0FBF2F109010B096FF018056B4300EBF1
:100E40008300A3891D044FF0320306D503EBC000D5
:100E5000B0FBF2F000F0070005E003EB0010B0FB80
:100E6000F2F000F00F000843208105B030BD4FF4D0
:100E70001651016000218180C18001810C224281D4
:100E80008181704710B5028A4FF2FF031A400B8828
:100E90004C8823438C88C9880C4323431343038223
:100EA00010BD0021018041808180C18070470029F0
:100EB000818902D041F4005101E021F40051818187
:100EC000704710B5C1F3421301F01F040121A14086
:100ED000012B07D0022B07D01430002A026805D05E
:100EE0000A4304E00C30F8E71030F6E78A4302606A
:100EF00010BD002A828A01D00A4300E08A43828220
:100F00007047028A22F00F020282028A0A4302829A
:100F10007047828922F40062828182890A43828139
:100F200070470029818902D041F0020101E021F0DF
:100F3000020181817047028A22F020020282028A25
:100F40000A43028270470029018A02D041F480419D
:100F500001E021F4804101827047C1F308018180E2
:100F600070478088C0F308007047818941F0010113
:100F700081817047028BD2B20283028B42EA012147
:100F800001837047028B02F47F420283028B0A4383
:100F9000028370470029818A02D041F0200101E0DC
:100FA00021F02001818270470029818A02D041F01E
:100FB000100101E021F01001818270470029818A2F
:100FC00002D041F0080101E021F008018182704760
:100FD0000029818902D041F4004101E0C1F30E01F2
:100FE000818170470029818A02D041F4006101E0CB
:100FF00021F4006181827047828A22F00402828299
:10100000828A0A43828270470029818A02D041F095
:10101000020101E021F002018182704702460020B6
:1010200012880A4200D001207047C94301807047EE
:1010300070B501F01F0501260024C1F3421306FA22
:1010400005F2012B0FD0022B0FD0838A4FEA11211A
:101050000088134206FA01F600EA060001D000B14A
:101060000124204670BD8389F0E7038AEEE70A0A6F
:1010700001219140C94301807047000000380140C0
:101080000044004000480040004C00400050004038
:101090000CB500224C4800920192016841F4803165
:1010A00001604FF4A063016801F4003101910099DF
:1010B000491C0091019911B900999942F3D1016835
:1010C000890333D50121019140490A6842F0100299
:1010D0000A600A6822F003020A600A6842F002020B
:1010E0000A604168416041684160416841F4806143
:1010F0004160416821F47C114160416841F4E8118C
:101100004160016841F08071016001688901FCD58E
:10111000416821F003014160416841F002014160F2
:101120004168C1F381010229FAD10CBD01920CBDC5
:10113000254810B5016841F0010101604168244A69
:10114000114041600168234A11400160016821F4A7
:1011500080210160416821F4FE0141604FF41F01CC
:101160008160FFF795FF1C494FF00060086010BDDB
:10117000154A10B55068194B10F00C01184803D0EF
:10118000042901D0082901D0036012E05168536896
:1011900001F470114FF0020413F4803F04EB91410D
:1011A00002D053689B0301D50E4B00E00B4B594313
:1011B000016051680A4AC1F30311121D515C0268B3
:1011C000CA40026010BD0000001002400020024032
:1011D0000000FFF8FFFFF6FE08ED00E000127A00C5
:1011E0002800002000093D002DE9F05F05460020A1
:1011F00092469B4688460646814640241BE0284688
:1012000041464746224600F042F853465A46C01A25
:10121000914110D311461846224600F029F82D1AA4
:1012200067EB01084F4622460120002100F020F81C
:1012300017EB00094E41201EA4F10104DFDC4846F3
:1012400031462A464346BDE8F09F0000064C074D54
:1012500006E0E06840F0010394E807009847103486
:10126000AC42F6D3FEF746FFB0150008D0150008D3
:10127000202A04DB203A00FA02F100207047914056
:10128000C2F1200320FA03F3194390407047202A4B
:1012900004DB203A21FA02F00021704721FA02F320
:1012A000D040C2F120029140084319467047000027
:1012B0000FB4054B10B503A9044A029800F018F8C2
:1012C00010BC5DF814FB0000410300083C00002046
:1012D00002E008C8121F08C1002AFAD170477047FF
:1012E000002001E001C1121F002AFBD1704700005D
:1012F0002DE9FF4F8DB09B460F460446002606E0C1
:1013000025280BD05A460F999047641C761C2078EC
:101310000028F5D111B03046BDE8F08F0025A84671
:101320000122984900E0054314F8013F203B02FAEE
:1013300003F00842F7D120782E2817D114F8010FB6
:1013400045F004052A280ED06FF02F022078A0F176
:10135000300109290AD808EB880102EB410100EBB2
:101360000108641CF2E757F8048B641C20786C2891
:101370000DD004DC4C2812D06A2811D104E0742866
:101380000DD07A280CD10AE045F4001507E0617809
:1013900045F48015814202D1641C05F58015641C5A
:1013A0002278692A45D008DC002AB3D0582A69D0AF
:1013B000632A10D0642A08D13BE0702A67D0732AD0
:1013C00013D0752A5CD0782A5CD010465A460F9903
:1013D0009047761CD3E017F8040B8DF8000000202E
:1013E0008DF80100E946012003E057F8049B4FF017
:1013F000FF3069074FF0000501D40AE06D1C454538
:101400000DDA8542FADB19F805100029F6D106E05D
:101410006D1C8542FCDB19F805100029F8D12E441B
:1014200004E019F8010B5A460F9990476D1EF8D247
:10143000A5E00A200021CDE90801C5F302500228E9
:101440000DD001CFC117031E71F100030DDA4FF06B
:10145000000CD0EB0C006CEB01012D2308E0FF1D0C
:1014600027F00707F7E80201EDE72B0504D52B234A
:101470008DF8283001233BE0EB0739D02023F7E734
:101480000A2000E010200021CDE9080107E010202B
:10149000002145F00405CDE908014FF00808C5F327
:1014A000025002280FD001CF00214FF0000A2B0775
:1014B0001FD5702A0DD0DDE908C38CF0100C5CEA52
:1014C000030C0CD015E0FF1D27F00707F7E8020119
:1014D000EBE740228DF828204FF0010A0BE050EA9C
:1014E000010306D030238DF828308DF829200223FF
:1014F0009A46582A04D024A20DF120090B9209E043
:1015000026A2F9E7DDE90823FFF76EFE0B9B9B5C43
:1015100009F8013D50EA0102F4D1ADEB0900203099
:101520000890680701D44FF001080899884502DD4A
:10153000A8EB010000E000208046002506E00AA894
:101540005A46405D0F9990476D1C761C5545F6DB59
:1015500004E030205A460F999047761CB8F10001FC
:10156000A8F10108F5DC05E019F8010B5A460F99BE
:101570009047761C0899481E08900029F4DC641CEA
:10158000C5E60000092801003031323334353637E2
:1015900038396162636465660000000030313233BF
:1015A000343536373839414243444546000000005F
:1015B000D01500080000002040000000D0120008F4
:1015C000101600084000002048040000E012000847
:1015D000000000000000000000000000000000000B
:1015E00000000002040608000000000102030401DC
:1015F000020304060708090000A24A0400000000D4
:1016000000000000010203040607080900000000B2
:04000005080000ED02
:00000001FF
